:020000040800F2
:10000000005000203D020008DF010008E101000867
:10001000E3010008E5010008E70100080000000016
:10002000000000000000000000000000E9010008DE
:10003000EB01000800000000ED010008EF010008DE
:100040008502000885020008850200088502000874
:100050008502000885020008850200088502000864
:100060008502000885020008850200088502000854
:100070008502000885020008850200088502000844
:100080008502000885020008850200088502000834
:100090008502000885020008850200088502000824
:1000A0008502000885020008850200088502000814
:1000B0008502000885020008850200088502000804
:1000C00085020008850200088502000885020008F4
:1000D00085020008850200088502000885020008E4
:1000E0008502000885020008850200080000000063
:1000F0000000000000000000000000000000000000
:0C01000000000000000000005FF808F1A3
:10010C000348044B834202D0034B03B1184770479A
:10011C0000000020000000200000000005480649F7
:10012C00091A891001EBD171491002D0034B03B1AC
:10013C00184770470000002000000020000000005D
:10014C0010B5064C237843B9FFF7DAFF044B13B113
:10015C000448AFF300800123237010BD0000002081
:10016C00000000008802000808B5044B1BB10449CC
:10017C000448AFF30080BDE80840CFE70000000062
:10018C00040000208802000870B50D4E0D4D761B42
:10019C00B61006D00024013455F8043B9847A6420B
:1001AC00F9D1094E094D00F069F8761BB61006D04E
:1001BC000024013455F8043B9847A642F9D170BD90
:1001CC00A0020008A0020008A4020008A002000877
:1001DC00FEE77047FEE7FEE7FEE7FEE77047704775
:1001EC00704770470F4B1A6842F001021A60596849
:1001FC000D4A0A405A601A6822F0847222F4803246
:10020C001A601A6822F480221A605A6822F4FE02DC
:10021C005A604FF41F029A60044B4FF000629A60D0
:10022C00704700BF001002400000FFF800ED00E036
:10023C00002103E00B4B5B58435004310A480B4B35
:10024C0042189A42F6D30A4A02E0002342F8043BD1
:10025C00084B9A42F9D3FFF7C5FFFFF795FFFFF75D
:10026C00B7FF7047A8020008000000200000002023
:10027C00000000201C000020FEE70000F8B500BFC5
:10028C00F8BC08BC9E467047F8B500BFF8BC08BC6B
:04029C009E467047C3
:0402A00075010008DC
:0402A4004D01000800
:040000050800023DB0
:00000001FF
