:020000040800F2
:1000000000500020C9030008810100088301000896
:100010008501000887010008890100080000000030
:100020000000000000000000000000008B0100083C
:100030008D010008000000008F010008F502000893
:10004000110400081104000811040008110400083C
:10005000110400081104000811040008110400082C
:10006000110400081104000811040008110400081C
:10007000110400081104000811040008110400080C
:1000800011040008110400081104000811040008FC
:1000900011040008110400081104000811040008EC
:1000A00011040008110400081104000811040008DC
:1000B00011040008110400081104000811040008CC
:1000C00011040008110400081104000811040008BC
:1000D00011040008110400081104000811040008AC
:1000E00011040008110400081104000800000000B9
:1000F0000000000000000000000000000000000000
:0C01000000000000000000005FF808F1A3
:10010C0010B5054C227832B9044B13B10448AFF347
:10011C0000800123237010BD0400002000000000AB
:10012C005C04000808B5034B1BB103490348AFF34B
:10013C00008008BD00000000080000205C040008DE
:10014C0008B500F0D5F800F09DF800F08BF8C82049
:10015C0000F0B8F8064C236943F000532361C82023
:10016C0000F0B0F8236943F400532361EFE700BFBC
:10017C00001001407047FEE7FEE7FEE7FEE7704720
:10018C00704770470F4B1A6842F001021A605968A9
:10019C000D4A0A405A601A6822F0847222F48032A6
:1001AC001A601A6822F480221A605A6822F4FE023D
:1001BC005A604FF41F029A60044B4FF000629A6031
:1001CC00704700BF001002400000FFF800ED00E097
:1001DC001F4B5B6803F00C03042B14D0082B16D0B8
:1001EC001BB11C4B1C4A1A6002E01A4B1A4A1A60CB
:1001FC00174B5B68C3F30313184AD15C154A136899
:10020C00CB4013607047134B134A1A60F0E7104A47
:10021C0053685268C3F38343023312F4803F05D111
:10022C000F4A02FB03F30B4A1360E1E7084A5268DA
:10023C0012F4003F05D00A4A02FB03F3054A13608F
:10024C00D6E7054A02FB03F3024A1360D0E700BF6E
:10025C00001002400000002000127A007404000814
:10026C0000093D00064B10229A61A3F580335A68B1
:10027C0042F440125A605A6822F440025A607047A5
:10028C000010024008B5FFF7A3FF0A4B1B680A4A8F
:10029C00A2FB03239B09013BB3F1807FF5D2074AF4
:1002AC005360074BF02183F823100023936007233E
:1002BC00136008BD00000020D34D621010E000E078
:1002CC0000ED00E0034B1A68024B1B689B1A83423B
:1002DC00FAD3704720000020024B1A6801321A60D2
:1002EC00186870472000002008B5FFF7F5FF08BD1F
:1002FC00304A136843F48033136042F210722D4B72
:10030C001B6813F4003F03D1002AF8D0013AF6E73A
:10031C00002A4ED0274B1A6842F400221A605A6801
:10032C0022F400325A60244A116841F01001116025
:10033C00116821F007011160116841F0040111608E
:10034C005A6842F480325A601A6822F080721A603D
:10035C005A6822F470125A605A6842F400225A60A9
:10036C001A6842F080721A60124B1B6813F0007FFF
:10037C00FAD0104B5A6822F003025A605A6842F0C5
:10038C0002025A600B4B5B6803F00C03082BF9D18B
:10039C00084B5A6822F4E0625A605A6842F4A06230
:1003AC005A605A6822F460525A605A6842F42052D9
:1003BC005A6070470010024000200240002103E008
:1003CC000B4B5B58435004310A480B4B42189A4272
:1003DC00F6D30A4A02E0002342F8043B084B9A4247
:1003EC00F9D3FFF7CFFE00F00FF8FFF7A9FE704727
:1003FC008C040008000000200400002004000020F1
:10040C0024000020FEE7000070B500260C4D0D4CBA
:10041C00641BA410A64209D100F01AF800260A4D5C
:10042C000A4C641BA410A64205D170BD55F8043BC0
:10043C0098470136EEE755F8043B98470136F2E74A
:10044C00840400088404000884040008880400085C
:10045C00F8B500BFF8BC08BC9E467047F8B500BFA5
:08046C00F8BC08BC9E46704775
:100474000000000000000000010203040607080950
:04048400310100083A
:040488000D0100085A
:04048C000024F40054
:04000005080003C923
:00000001FF
