:020000040800F2
:1000000000500020710200081102000813020008CD
:10001000150200081702000819020008000000007D
:100020000000000000000000000000001B020008AB
:100030001D020008000000001F0200082102000845
:10004000B9020008B9020008B9020008B9020008A4
:10005000B9020008B9020008B9020008B902000894
:10006000B9020008B9020008B9020008B902000884
:10007000B9020008B9020008B9020008B902000874
:10008000B9020008B9020008B9020008B902000864
:10009000B9020008B9020008B9020008B902000854
:1000A000B9020008B9020008B9020008B902000844
:1000B000B9020008B9020008B9020008B902000834
:1000C000B9020008B9020008B9020008B902000824
:1000D000B9020008B9020008B9020008B902000814
:1000E000B9020008B9020008B902000800000000C7
:1000F0000000000000000000000000000000000000
:0C01000000000000000000005FF808F1A3
:10010C000348044B834202D0034B03B1184770479A
:10011C0000000020000000200000000005480649F7
:10012C00091A891001EBD171491002D0034B03B1AC
:10013C00184770470000002000000020000000005D
:10014C0010B5064C237843B9FFF7DAFF044B13B113
:10015C000448AFF300800123237010BD0000002081
:10016C0000000000BC02000808B5044B1BB1044998
:10017C000448AFF30080BDE80840CFE70000000062
:10018C0004000020BC02000870B50D4E0D4D761B0E
:10019C00B61006D00024013455F8043B9847A6420B
:1001AC00F9D1094E094D00F083F8761BB61006D034
:1001BC000024013455F8043B9847A642F9D170BD90
:1001CC00D4020008D4020008D8020008D4020008A7
:1001DC000A4A936943F010039361A2F58032536885
:1001EC0043F480135360064B1A6942F000521A61B3
:1001FC001A6942F400521A61F5E700BF0010024080
:10020C00001001407047FEE7FEE7FEE7FEE770478F
:10021C0070477047704700000F4B1A6842F001029C
:10022C001A6059680D4A0A405A601A6822F08472A2
:10023C0022F480321A601A6822F480221A605A68FA
:10024C0022F4FE025A604FF41F029A60044B4FF0E6
:10025C0000629A60704700BF001002400000FFF877
:10026C0000ED00E0002103E00B4B5B5843500431E0
:10027C000A480B4B42189A42F6D30A4A02E0002372
:10028C0042F8043B084B9A42F9D3FFF7C5FFFFF73E
:10029C007BFFFFF79DFF7047DC0200080000002089
:1002AC0000000020000000201C000020FEE70000E1
:1002BC00F8B500BFF8BC08BC9E467047F8B500BF47
:0802CC00F8BC08BC9E46704717
:0402D40075010008A8
:0402D8004D010008CC
:04000005080002717C
:00000001FF
