:020000040800F2
:1000000000500020FD0E0008F1060008F30600086D
:10001000F5060008F7060008F906000800000000D1
:10002000000000000000000000000000FB060008C7
:10003000FD06000800000000FF060008790B00081C
:10004000450F0008450F0008450F0008450F000840
:10005000450F0008450F0008450F0008450F000830
:10006000450F0008450F0008450F0008450F000820
:10007000450F0008450F0008450F0008450F000810
:10008000450F0008450F0008450F0008450F000800
:10009000450F0008450F0008450F0008450F0008F0
:1000A000450F0008450F0008450F0008450F0008E0
:1000B000450F0008450F00084D0D0008450F0008CA
:1000C000450F0008450F0008450F0008450F0008C0
:1000D000450F0008450F0008450F0008450F0008B0
:1000E000450F0008450F0008450F000800000000FC
:1000F0000000000000000000000000000000000000
:0C01000000000000000000005FF808F1A3
:10010C0010B5054C227832B9044B13B10448AFF347
:10011C0000800123237010BD20000020000000008F
:10012C00900F000808B5034B1BB103490348AFF30C
:10013C00008008BD0000000024000020900F000883
:10014C0008B500F071FD00F0D3FC00F087FC00F066
:10015C00D1FD00F03FFB00F07FFB0E480E4B03601F
:10016C00082242600D4D2B6010226A600C4C2360FB
:10017C001823636000F0FEFC284600F0FBFC2046D0
:10018C0000F0F8FC074B0A221A7000F085FA00F018
:10019C002DFAFCE78802002000080140980200209C
:1001AC00A802002078020020274B9B680A2B1DD048
:1001BC000020254B9B680F2B1DD0244B9B680A2BD2
:1001CC001FD0234B9B680A2B20D0204B9B680F2BF6
:1001DC0021D01D4B9B68142B23D01C4B9B68142BDC
:1001EC0025D01B4B9B680F2B27D07047164B00223A
:1001FC009A600120DDE7144B00229A601A730A20E2
:10020C00DBE7124B00229A600220DAE7104B002247
:10021C009A600320D9E70D4B00229A601A731420C0
:10022C00D7E7094B00229A601A730B20D5E7074BCE
:10023C0000229A601A731620D3E7054B00229A60AD
:10024C001A731E20D1E700BF8802002098020020FC
:10025C00A802002010B4114B1A68114BA3FB0243E7
:10026C005B09642404FB13231BB90E4A1368013386
:10027C0013600C4B1B68B3EB510F0AD20A4A14786B
:10028C00204310708B4202D9064B00221A6010BC1E
:10029C007047054A00201070F4E700BF7C02002074
:1002AC001F85EB5148000020B802002030B587B004
:1002BC00FFF77AFF01381D281ED8DFE800F00F2C5D
:1002CC001D1D1D1D1D1D1D3B4D1D1D1D1D1D1D1D04
:1002DC001D441D521D1D1D1D1D1D1D57304B5B7BCF
:1002EC0013B12F4B00225A732E4B1A782E4B03EB63
:1002FC0042039A8801329A802A4B1A782B4B1A7037
:10030C002B4B01211970284B03EB42039A88294B84
:10031C001A8007B030BD284B5B7B13B1264B0022F3
:10032C005A73204B1A78204B03EB42039A88013AFC
:10033C009A80E1E71B4B1A781B4B03EB42039A881C
:10034C000A329A80D8E7174B1A78174B03EB420303
:10035C009A880A3A9A80CFE7124A137801331370BD
:10036C00CAE7104A1378013B1370C5E70F4B0A22FA
:10037C001A70124B01221A70114D0B4C182229467F
:10038C00204600F027FB2946684600F057FB0098F2
:10039C000199029A039B0FC40498059903C4ABE717
:1003AC0088020020650000204C000020780200200C
:1003BC00B8020020760200209802002000000020E5
:1003CC0000FC000870B4091A8DB209B21088548868
:1003DC009388184E328804FB052212B23280002A10
:1003EC0020DB144AB2F90020B2F5C87F03DD114AB4
:1003FC004FF4C874148000FB05F080B20D4A1288CB
:10040C00104480B20C4CB4F900208A1A02FB030091
:10041C0000B22180002808DBB0F57A7F06DD4FF4AE
:10042C007A7003E000243480DBE7002080B270BCDB
:10043C00704700BF420000204400002030B587B058
:10044C0000F08CFAA0F5DC605A4C84FB0034A4EB71
:10045C00E074594B1B68142B18D8584B0A221A708D
:10046C00FFF7A2FE01381D282DD8DFE800F01E4052
:10047C00962C2C2C2C2C2C4F592C2C2C2C2C2C2CF6
:10048C002C542C6D2C2C2C2C2C2C2C82A0B24C4DA6
:10049C004C4A2988FFF796FF4B4B58632A884B4BE5
:1004AC001A80454B00221A60D7E7494B5B7B33B16E
:1004BC00434A1388013B1380454B00225A73404A30
:1004CC00138801331380434B1A78434B1A70A4B230
:1004DC003B4B1B889A1E944202DB02339C4265DD27
:1004EC004FF4FA710120FFF7B5FE07B030BD3B4B5E
:1004FC005B7B33B1324A138801331380374B0022B4
:10050C005A732F4A1388013B1380DCE72C4A13885B
:10051C000A331380D7E72A4A13880A3B1380D2E7A1
:10052C002C4A137801335BB21370032B02DD134694
:10053C0000221A70274B93F90020274B03EB420340
:10054C009A881F4B1A80BEE7224A1378013B5BB294
:10055C001370002B09DB1F4B93F900201E4B03EB90
:10056C0042039A88164B1A80ADE7134603221A7081
:10057C00F1E71B4B02221A70104B01221A70194919
:10058C00684600F05BFA144D00980199029A039B9F
:10059C000FC50498059903C595E70F48084B1B88B0
:1005AC00C38218220F4900F015FA8CE70E4B082273
:1005BC001A709AE756555555800200207802002093
:1005CC00660000203C000020000400407602002061
:1005DC0088020020640000204C00002098020020BB
:1005EC000000002000FC0008B802002008B50B4BEE
:1005FC001B78012B0BD0022B0CD0094800F0C0FA51
:10060C00084800F0BDFA084800F0BAFA08BDFFF738
:10061C0015FFF2E7FFF74AFEEFE700BF00000020EE
:10062C00A80200208802002098020020174B1A68AC
:10063C0042F040721A601A6822F040621A601A681E
:10064C0042F000621A60124AD36943F00203D3618C
:10065C00104B08229A621A6842F080021A609A695A
:10066C0042F008029A619A6942F060029A614FF472
:10067C007A72DA6200225A631A6A42F001021A6232
:10068C001A6842F001021A60704700BF000801406E
:10069C00001002400004004030B587B00D4D0E49EB
:1006AC00684600F0CBF92C4600980199029A039BFE
:1006BC000FC40498059903C4EA8A084B1A80FFF703
:1006CC00B5FF074B28221A8003225A8000229A80F9
:1006DC0007B030BD4C00002000FC00086600002074
:1006EC003C0000207047FEE7FEE7FEE7FEE77047A0
:1006FC00704770470F4B1A6842F001021A60596834
:10070C000D4A0A405A601A6822F0847222F4803230
:10071C001A601A6822F480221A605A6822F4FE02C7
:10072C005A604FF41F029A60044B4FF000629A60BB
:10073C00704700BF001002400000FFF800ED00E021
:10074C001F4B5B6803F00C03042B14D0082B16D042
:10075C001BB11C4B1C4A1A6002E01A4B1A4A1A6055
:10076C00174B5B68C3F30313184AD15C154A136823
:10077C00CB4013607047134B134A1A60F0E7104AD2
:10078C0053685268C3F38343023312F4803F05D19C
:10079C000F4A02FB03F30B4A1360E1E7084A526865
:1007AC0012F4003F05D00A4A02FB03F3054A13601A
:1007BC00D6E7054A02FB03F3024A1360D0E700BFF9
:1007CC00001002400400002000127A00A80F00085C
:1007DC0000093D001C4B9A6942F004029A611B49C6
:1007EC000A6822F040620A6001F500610A6822F092
:1007FC0040720A605A6842F440425A609A6942F464
:10080C0000729A61124A936843F004039360104B90
:10081C009B6813F0040F03D10D4B07221A61F6E706
:10082C000B4B0C4A9A609A6842F480729A609A68F0
:10083C0022F002029A600022DA625A639A6842F449
:10084C0080029A60704700BF00100240000801400F
:10085C000024014001001E00174A536943F00103B4
:10086C005361164BA2F56B42B43A9A60144ADA60A3
:10087C001A6822F010021A6001225A601A6822F0DB
:10088C0040021A601A6842F080021A601A6842F438
:10089C0080721A601A6842F480621A601A6842F414
:1008AC0040521A601A6842F020021A601A6842F02C
:1008BC0001021A60704700BF00100240080002409D
:1008CC006C02002030B4137813F0010F25D015887A
:1008DC00C5F3470531F815301468C3EB5423C3F343
:1008EC001603034463F35F24146021F81500138886
:1008FC0003F4FF73B3F5FF7F0AD01388C3F34701EA
:10090C00013161F3480313801068400C30BC704710
:10091C0013886FF348031380F6E7136800EB532436
:10092C0064F35F231360C3F3470321F813001388A8
:10093C0003F4FF73B3F5FF7F07D01388C3F34701AC
:10094C00013161F348031380DEE713886FF348032A
:10095C001380DBB243F001031370D5E708B5064AE8
:10096C00936843F480039360044A0549054B188847
:10097C00FFF7A8FF08BD00BF00240140680000205D
:10098C006C0000206C020020114BDB6813F0010F8F
:10099C00FAD10F4BDB6813F0200F02D00C4B202246
:1009AC00DA600B4B1A6942F002021A6158611A693B
:1009BC0042F040021A61064BDB6813F0200FFAD0AC
:1009CC00034B2022DA601A6922F002021A61704786
:1009DC0000200240F8B505460E4617460846FFF7BC
:1009EC00D3FF154BDC6814F00104FAD1DB6813F06B
:1009FC00200F02D0104B2022DA600F4A136943F00B
:100A0C00010313610FE02B195A782B5D03EB0223C2
:100A1C009BB2A353084BDB6813F0200FFAD0064BA4
:100A2C002022DA600234A742EDD8034A136923F07E
:100A3C0001031361F8BD00BF0020024070B40C68C4
:100A4C004A688E68CD68046042608660C5600C6937
:100A5C004A690461426170BC70470000204B9A697E
:100A6C0042F001029A611F494A6842F000724A60E2
:100A7C009A6942F01C029A61A3F580335A6842F4D9
:100A8C0040125A605A6822F440025A60A3F58063FF
:100A9C001A6842F033321A601A6802F033321A6064
:100AAC005968114A0A435A605968104A0A405A60F8
:100ABC00A3F580631A6822F44C321A601A6822F487
:100ACC0040421A601A6822F440221A601A6842F4F2
:100ADC0008221A60DA6842F01802DA60704700BF28
:100AEC000010024000000140333303003333F3FFA6
:100AFC0008B50E4B0E4A5A6002F188325A60FFF765
:100B0C001FFE0C4B1B680C4AA2FB03239B09013BE9
:100B1C00B3F1807FF5D2094A5360094BF02183F879
:100B2C002310002393600723136008BD00200240AC
:100B3C002301674504000020D34D621010E000E053
:100B4C0000ED00E0064B1A6801321A6005490A688C
:100B5C0001320A6004490A6801320A601868704759
:100B6C007C020020800200208402002008B5FFF7E0
:100B7C00E9FF08BD002303734373836070470000D3
:100B8C0003689B6842681340254A1168027B2AB9A6
:100B9C0063B901230373234B19607047012A06D0F4
:100BAC00022A1ED0032A2BD0062A30D070473BB124
:100BBC001C4A126832328A4202D9002303737047EE
:100BCC0013B1022303737047164B1B6803F57A733A
:100BDC008B42EBD2012343730F23836006230373F1
:100BEC007047104A1268C8328A4204D20A238360C2
:100BFC00002303737047002BD8D103230373704772
:100C0C00002BD3D0142383600023037370471BB1D4
:100C1C00002343730373704701234373C6E700BF7C
:100C2C008402002070020020304A136843F48033A1
:100C3C00136042F210722D4B1B6813F4003F03D16A
:100C4C00002AF8D0013AF6E7002A4ED0274B1A6852
:100C5C0042F400221A605A6822F400325A60244A84
:100C6C00116841F010011160116821F00701116049
:100C7C00116841F0040111605A6842F480325A60E4
:100C8C001A6822F080721A605A6822F470125A6044
:100C9C005A6842F400225A601A6842F080721A6054
:100CAC00124B1B6813F0007FFAD0104B5A6822F0DD
:100CBC0003025A605A6842F002025A600B4B5B689E
:100CCC0003F00C03082BF9D1084B5A6822F4E062AC
:100CDC005A605A6842F4A0625A605A6822F4605210
:100CEC005A605A6842F420525A6070470010024011
:100CFC00002002400F4AD36943F00403D3610E4B2A
:100D0C0008229A624FF47A72DA624FF4FA725A63DA
:100D1C00DA6842F00302DA601A6842F010021A60D4
:100D2C001A6842F001021A60044B4FF080421A60BC
:100D3C00704700BF001002400008004000E100E0D6
:100D4C00614B1B6913F0020F25D0604A13780133F5
:100D5C00DBB213701378DBB2012B2FD05B4B1B78FB
:100D6C00DBB2022B42D0594B1B78DBB2032B63D086
:100D7C00564B1B78DBB2042B00F08380534B1B7853
:100D8C00DBB2042B02D9514B00221A704E4A136964
:100D9C0023F0020313614C4B1B6913F0010F0CD0B1
:100DAC004B4A13696FEA03436FEA13431361A2F5CD
:100DBC008232136923F0010313617047454B187895
:100DCC00434A1369444931F810100B431361434BE8
:100DDC001B7813F0010F03D0136943F000731361F8
:100DEC003B4A136943F001031361B7E73C4B1B8883
:100DFC009AB23C4BA3FB02139B094FF47A7101FB93
:100E0C0013239BB2384AA2FB03235B0930490A69BE
:100E1C00314830F8133013430B61304B1B7813F00F
:100E2C00020F03D00B6943F000730B61284A13695E
:100E3C0043F01003136196E7294B1B889AB22A4B97
:100E4C00A3FB02135B09642101FB13239BB2274A0A
:100E5C00A2FB0323DB081E490A691F4830F8133034
:100E6C0013430B611D4B1B7813F0040F03D00B695C
:100E7C0043F000730B61164A136943F480531361FA
:100E8C0076E7174B1A8892B2184BA3FB0213DB08B8
:100E9C0003EB83035900521A92B20D490B690E48A9
:100EAC0030F8122013430B610C4B1B7813F0080F16
:100EBC0003D00B6943F000730B61054A136943F0CF
:100ECC00400313615AE700BF000800407402002081
:100EDC00000C01407802002008000020B80200201D
:100EEC0076020020D34D62101F85EB51CDCCCCCCBB
:100EFC00002103E00B4B5B58435004310A480B4B69
:100F0C0042189A42F6D30A4A02E0002342F8043B04
:100F1C00084B9A42F9D3FFF7EDFB00F00FF8FFF7FF
:100F2C000FF97047C00F00080000002020000020BF
:100F3C0020000020BC020020FEE7000070B5002657
:100F4C000C4D0D4C641BA410A64209D100F01AF8EC
:100F5C0000260A4D0A4C641BA410A64205D170BD94
:100F6C0055F8043B98470136EEE755F8043B984793
:100F7C000136F2E7B80F0008B80F0008B80F0008E8
:100F8C00BC0F0008F8B500BFF8BC08BC9E46704703
:0C0F9C00F8B500BFF8BC08BC9E467047CA
:100FA8000000000000000000010203040607080911
:040FB80031010008FB
:040FBC000D0100081B
:100FC000010000000024F40080028A0E0C030C0AC9
:100FD000060E240A24028C0E0402040AAA0F040737
:0400000508000EFDE4
:00000001FF
